{
  "contractName": "Rideshare",
  "abi": [
    {
      "inputs": [
        {
          "internalType": "uint256",
          "name": "_driverCost",
          "type": "uint256"
        },
        {
          "internalType": "uint256",
          "name": "_capacity",
          "type": "uint256"
        },
        {
          "internalType": "string",
          "name": "_originAddress",
          "type": "string"
        },
        {
          "internalType": "string",
          "name": "_destAddress",
          "type": "string"
        },
        {
          "internalType": "uint256",
          "name": "_departAt",
          "type": "uint256"
        }
      ],
      "name": "createRide",
      "outputs": [],
      "stateMutability": "nonpayable",
      "type": "function"
    },
    {
      "inputs": [
        {
          "internalType": "uint256",
          "name": "rideNumber",
          "type": "uint256"
        }
      ],
      "name": "joinRide",
      "outputs": [],
      "stateMutability": "payable",
      "type": "function"
    },
    {
      "inputs": [
        {
          "internalType": "uint256",
          "name": "rideNumber",
          "type": "uint256"
        }
      ],
      "name": "getPassengers",
      "outputs": [
        {
          "internalType": "address[]",
          "name": "",
          "type": "address[]"
        }
      ],
      "stateMutability": "view",
      "type": "function"
    },
    {
      "inputs": [
        {
          "internalType": "uint256",
          "name": "rideNumber",
          "type": "uint256"
        }
      ],
      "name": "getRideStatus",
      "outputs": [
        {
          "internalType": "string",
          "name": "",
          "type": "string"
        }
      ],
      "stateMutability": "view",
      "type": "function"
    },
    {
      "inputs": [
        {
          "internalType": "uint256",
          "name": "rideNumber",
          "type": "uint256"
        }
      ],
      "name": "getRide",
      "outputs": [
        {
          "internalType": "address",
          "name": "",
          "type": "address"
        },
        {
          "internalType": "uint256",
          "name": "",
          "type": "uint256"
        },
        {
          "internalType": "uint256",
          "name": "",
          "type": "uint256"
        },
        {
          "internalType": "string",
          "name": "",
          "type": "string"
        },
        {
          "internalType": "string",
          "name": "",
          "type": "string"
        },
        {
          "internalType": "uint256",
          "name": "",
          "type": "uint256"
        },
        {
          "internalType": "uint256",
          "name": "",
          "type": "uint256"
        },
        {
          "internalType": "string",
          "name": "",
          "type": "string"
        },
        {
          "internalType": "address[]",
          "name": "",
          "type": "address[]"
        }
      ],
      "stateMutability": "view",
      "type": "function"
    },
    {
      "inputs": [],
      "name": "getAvailableRideCount",
      "outputs": [
        {
          "internalType": "uint256",
          "name": "",
          "type": "uint256"
        }
      ],
      "stateMutability": "view",
      "type": "function"
    },
    {
      "inputs": [],
      "name": "getEnrouteRideCount",
      "outputs": [
        {
          "internalType": "uint256",
          "name": "",
          "type": "uint256"
        }
      ],
      "stateMutability": "view",
      "type": "function"
    },
    {
      "inputs": [],
      "name": "getCompletedRideCount",
      "outputs": [
        {
          "internalType": "uint256",
          "name": "",
          "type": "uint256"
        }
      ],
      "stateMutability": "view",
      "type": "function"
    },
    {
      "inputs": [],
      "name": "getTotalRideCount",
      "outputs": [
        {
          "internalType": "uint256",
          "name": "",
          "type": "uint256"
        }
      ],
      "stateMutability": "view",
      "type": "function"
    },
    {
      "inputs": [
        {
          "internalType": "uint256",
          "name": "rideNumber",
          "type": "uint256"
        },
        {
          "internalType": "address",
          "name": "passengerAcct",
          "type": "address"
        }
      ],
      "name": "passengerInRide",
      "outputs": [
        {
          "internalType": "bool",
          "name": "",
          "type": "bool"
        }
      ],
      "stateMutability": "view",
      "type": "function"
    },
    {
      "inputs": [
        {
          "internalType": "uint256",
          "name": "_rideNumber",
          "type": "uint256"
        }
      ],
      "name": "cancelRide",
      "outputs": [],
      "stateMutability": "nonpayable",
      "type": "function"
    },
    {
      "inputs": [
        {
          "internalType": "uint256",
          "name": "_rideNumber",
          "type": "uint256"
        }
      ],
      "name": "startRide",
      "outputs": [],
      "stateMutability": "nonpayable",
      "type": "function"
    },
    {
      "inputs": [
        {
          "internalType": "uint256",
          "name": "_rideNumber",
          "type": "uint256"
        }
      ],
      "name": "endRide",
      "outputs": [
        {
          "internalType": "bool",
          "name": "",
          "type": "bool"
        }
      ],
      "stateMutability": "nonpayable",
      "type": "function"
    },
    {
      "inputs": [
        {
          "internalType": "uint256",
          "name": "rideNumber",
          "type": "uint256"
        },
        {
          "internalType": "address",
          "name": "passengerAddress",
          "type": "address"
        }
      ],
      "name": "acceptPassengerRequest",
      "outputs": [],
      "stateMutability": "nonpayable",
      "type": "function"
    },
    {
      "inputs": [
        {
          "internalType": "uint256",
          "name": "rideNumber",
          "type": "uint256"
        },
        {
          "internalType": "address",
          "name": "passengerAddress",
          "type": "address"
        }
      ],
      "name": "rejectPassengerRequest",
      "outputs": [],
      "stateMutability": "nonpayable",
      "type": "function"
    }
  ],
  "bytecode": "0x608060405234801561001057600080fd5b50613d49806100206000396000f3fe6080604052600436106100e85760003560e01c806390f1b7cf1161008a578063aa699a7e11610059578063aa699a7e14610301578063c4ef54d61461032c578063e9c14b1e14610369578063f98b677814610392576100e8565b806390f1b7cf146102575780639589fe9b146102825780639e156f2d146102ad578063a6f07b29146102d8576100e8565b80635b3f1cb1116100c65780635b3f1cb11461016f5780636d4d31f2146101985780637c7b0ff4146101d55780638743e1d31461021a576100e8565b806301f32206146100ed57806350a548fc146101095780635888326414610146575b600080fd5b610107600480360381019061010291906135e8565b6103bb565b005b34801561011557600080fd5b50610130600480360381019061012b91906135e8565b61080b565b60405161013d9190613630565b60405180910390f35b34801561015257600080fd5b5061016d600480360381019061016891906136a9565b610cb4565b005b34801561017b57600080fd5b50610196600480360381019061019191906136a9565b611325565b005b3480156101a457600080fd5b506101bf60048036038101906101ba91906135e8565b611794565b6040516101cc91906137a7565b60405180910390f35b3480156101e157600080fd5b506101fc60048036038101906101f791906135e8565b611847565b60405161021199989796959493929190613880565b60405180910390f35b34801561022657600080fd5b50610241600480360381019061023c91906135e8565b611b96565b60405161024e9190613929565b60405180910390f35b34801561026357600080fd5b5061026c611c4d565b604051610279919061394b565b60405180910390f35b34801561028e57600080fd5b50610297611fd1565b6040516102a4919061394b565b60405180910390f35b3480156102b957600080fd5b506102c2612355565b6040516102cf919061394b565b60405180910390f35b3480156102e457600080fd5b506102ff60048036038101906102fa91906135e8565b612361565b005b34801561030d57600080fd5b50610316612821565b604051610323919061394b565b60405180910390f35b34801561033857600080fd5b50610353600480360381019061034e91906136a9565b612ba5565b6040516103609190613630565b60405180910390f35b34801561037557600080fd5b50610390600480360381019061038b91906135e8565b612f29565b005b34801561039e57600080fd5b506103b960048036038101906103b49190613a9b565b6132cb565b005b60008082815481106103d0576103cf613b4e565b5b9060005260206000209060090201604051806101200160405290816000820160009054906101000a900473ffffffffffffffffffffffffffffffffffffffff1673ffffffffffffffffffffffffffffffffffffffff1673ffffffffffffffffffffffffffffffffffffffff168152602001600182015481526020016002820154815260200160038201805461046490613bac565b80601f016020809104026020016040519081016040528092919081815260200182805461049090613bac565b80156104dd5780601f106104b2576101008083540402835291602001916104dd565b820191906000526020600020905b8154815290600101906020018083116104c057829003601f168201915b505050505081526020016004820180546104f690613bac565b80601f016020809104026020016040519081016040528092919081815260200182805461052290613bac565b801561056f5780601f106105445761010080835404028352916020019161056f565b820191906000526020600020905b81548152906001019060200180831161055257829003601f168201915b50505050508152602001600582015481526020016006820154815260200160078201805461059c90613bac565b80601f01602080910402602001604051908101604052809291908181526020018280546105c890613bac565b80156106155780601f106105ea57610100808354040283529160200191610615565b820191906000526020600020905b8154815290600101906020018083116105f857829003601f168201915b50505050508152602001600882018054806020026020016040519081016040528092919081815260200182805480156106a357602002820191906000526020600020905b8160009054906101000a900473ffffffffffffffffffffffffffffffffffffffff1673ffffffffffffffffffffffffffffffffffffffff1681526020019060010190808311610659575b50505050508152505090506040518060400160405280600781526020017f496e697469616c00000000000000000000000000000000000000000000000000815250805190602001208160e00151805190602001201461070157600080fd5b806020015134101561071257600080fd5b6000828154811061072657610725613b4e565b5b9060005260206000209060090201600801339080600181540180825580915050600190039060005260206000200160009091909190916101000a81548173ffffffffffffffffffffffffffffffffffffffff021916908373ffffffffffffffffffffffffffffffffffffffff1602179055506040518060400160405280601281526020017f70617373656e6765725265717565737465640000000000000000000000000000815250600083815481106107e2576107e1613b4e565b5b90600052602060002090600902016007019080519060200190610806929190613471565b505050565b6000806000838154811061082257610821613b4e565b5b9060005260206000209060090201604051806101200160405290816000820160009054906101000a900473ffffffffffffffffffffffffffffffffffffffff1673ffffffffffffffffffffffffffffffffffffffff1673ffffffffffffffffffffffffffffffffffffffff16815260200160018201548152602001600282015481526020016003820180546108b690613bac565b80601f01602080910402602001604051908101604052809291908181526020018280546108e290613bac565b801561092f5780601f106109045761010080835404028352916020019161092f565b820191906000526020600020905b81548152906001019060200180831161091257829003601f168201915b5050505050815260200160048201805461094890613bac565b80601f016020809104026020016040519081016040528092919081815260200182805461097490613bac565b80156109c15780601f10610996576101008083540402835291602001916109c1565b820191906000526020600020905b8154815290600101906020018083116109a457829003601f168201915b5050505050815260200160058201548152602001600682015481526020016007820180546109ee90613bac565b80601f0160208091040260200160405190810160405280929190818152602001828054610a1a90613bac565b8015610a675780601f10610a3c57610100808354040283529160200191610a67565b820191906000526020600020905b815481529060010190602001808311610a4a57829003601f168201915b5050505050815260200160088201805480602002602001604051908101604052809291908181526020018280548015610af557602002820191906000526020600020905b8160009054906101000a900473ffffffffffffffffffffffffffffffffffffffff1673ffffffffffffffffffffffffffffffffffffffff1681526020019060010190808311610aab575b50505050508152505090506000816101000151511115610b4d57806000015173ffffffffffffffffffffffffffffffffffffffff163373ffffffffffffffffffffffffffffffffffffffff161415610b4c57600080fd5b5b6040518060400160405280600781526020017f656e726f75746500000000000000000000000000000000000000000000000000815250805190602001208160e001518051906020012014610ba057600080fd5b806020015181610100015151610bb69190613c0d565b471015610bc257600080fd5b6000670de0b6b3a7640000826020015183610100015151610be39190613c0d565b610bed9190613c0d565b9050816000015173ffffffffffffffffffffffffffffffffffffffff166108fc829081150290604051600060405180830381858888f19350505050158015610c39573d6000803e3d6000fd5b506040518060400160405280600981526020017f636f6d706c65746564000000000000000000000000000000000000000000000081525060008581548110610c8457610c83613b4e565b5b90600052602060002090600902016007019080519060200190610ca8929190613471565b50600192505050919050565b6000808381548110610cc957610cc8613b4e565b5b9060005260206000209060090201604051806101200160405290816000820160009054906101000a900473ffffffffffffffffffffffffffffffffffffffff1673ffffffffffffffffffffffffffffffffffffffff1673ffffffffffffffffffffffffffffffffffffffff1681526020016001820154815260200160028201548152602001600382018054610d5d90613bac565b80601f0160208091040260200160405190810160405280929190818152602001828054610d8990613bac565b8015610dd65780601f10610dab57610100808354040283529160200191610dd6565b820191906000526020600020905b815481529060010190602001808311610db957829003601f168201915b50505050508152602001600482018054610def90613bac565b80601f0160208091040260200160405190810160405280929190818152602001828054610e1b90613bac565b8015610e685780601f10610e3d57610100808354040283529160200191610e68565b820191906000526020600020905b815481529060010190602001808311610e4b57829003601f168201915b505050505081526020016005820154815260200160068201548152602001600782018054610e9590613bac565b80601f0160208091040260200160405190810160405280929190818152602001828054610ec190613bac565b8015610f0e5780601f10610ee357610100808354040283529160200191610f0e565b820191906000526020600020905b815481529060010190602001808311610ef157829003601f168201915b5050505050815260200160088201805480602002602001604051908101604052809291908181526020018280548015610f9c57602002820191906000526020600020905b8160009054906101000a900473ffffffffffffffffffffffffffffffffffffffff1673ffffffffffffffffffffffffffffffffffffffff1681526020019060010190808311610f52575b50505050508152505090506040518060400160405280601281526020017f70617373656e6765725265717565737465640000000000000000000000000000815250805190602001208160e001518051906020012014610ffa57600080fd5b806000015173ffffffffffffffffffffffffffffffffffffffff163373ffffffffffffffffffffffffffffffffffffffff161461103657600080fd5b60005b8161010001515181101561131f578273ffffffffffffffffffffffffffffffffffffffff16826101000151828151811061107657611075613b4e565b5b602002602001015173ffffffffffffffffffffffffffffffffffffffff16141561130c576040518060400160405280600781526020017f496e697469616c00000000000000000000000000000000000000000000000000815250600085815481106110e4576110e3613b4e565b5b90600052602060002090600902016007019080519060200190611108929190613471565b506000670de0b6b3a764000083602001516111239190613c0d565b9050826101000151828151811061113d5761113c613b4e565b5b602002602001015173ffffffffffffffffffffffffffffffffffffffff166108fc829081150290604051600060405180830381858888f1935050505015801561118a573d6000803e3d6000fd5b506000858154811061119f5761119e613b4e565b5b90600052602060002090600902016008016001600087815481106111c6576111c5613b4e565b5b9060005260206000209060090201600801805490506111e59190613c67565b815481106111f6576111f5613b4e565b5b9060005260206000200160009054906101000a900473ffffffffffffffffffffffffffffffffffffffff166000868154811061123557611234613b4e565b5b9060005260206000209060090201600801838154811061125857611257613b4e565b5b9060005260206000200160006101000a81548173ffffffffffffffffffffffffffffffffffffffff021916908373ffffffffffffffffffffffffffffffffffffffff160217905550600085815481106112b4576112b3613b4e565b5b90600052602060002090600902016008018054806112d5576112d4613c9b565b5b6001900381819060005260206000200160006101000a81549073ffffffffffffffffffffffffffffffffffffffff02191690559055505b808061131790613cca565b915050611039565b50505050565b600080838154811061133a57611339613b4e565b5b9060005260206000209060090201604051806101200160405290816000820160009054906101000a900473ffffffffffffffffffffffffffffffffffffffff1673ffffffffffffffffffffffffffffffffffffffff1673ffffffffffffffffffffffffffffffffffffffff16815260200160018201548152602001600282015481526020016003820180546113ce90613bac565b80601f01602080910402602001604051908101604052809291908181526020018280546113fa90613bac565b80156114475780601f1061141c57610100808354040283529160200191611447565b820191906000526020600020905b81548152906001019060200180831161142a57829003601f168201915b5050505050815260200160048201805461146090613bac565b80601f016020809104026020016040519081016040528092919081815260200182805461148c90613bac565b80156114d95780601f106114ae576101008083540402835291602001916114d9565b820191906000526020600020905b8154815290600101906020018083116114bc57829003601f168201915b50505050508152602001600582015481526020016006820154815260200160078201805461150690613bac565b80601f016020809104026020016040519081016040528092919081815260200182805461153290613bac565b801561157f5780601f106115545761010080835404028352916020019161157f565b820191906000526020600020905b81548152906001019060200180831161156257829003601f168201915b505050505081526020016008820180548060200260200160405190810160405280929190818152602001828054801561160d57602002820191906000526020600020905b8160009054906101000a900473ffffffffffffffffffffffffffffffffffffffff1673ffffffffffffffffffffffffffffffffffffffff16815260200190600101908083116115c3575b50505050508152505090506040518060400160405280601281526020017f70617373656e6765725265717565737465640000000000000000000000000000815250805190602001208160e00151805190602001201461166b57600080fd5b806000015173ffffffffffffffffffffffffffffffffffffffff163373ffffffffffffffffffffffffffffffffffffffff16146116a757600080fd5b60005b8161010001515181101561178e578273ffffffffffffffffffffffffffffffffffffffff1682610100015182815181106116e7576116e6613b4e565b5b602002602001015173ffffffffffffffffffffffffffffffffffffffff16141561177b576040518060400160405280601281526020017f70617373656e676572436f6e6669726d656400000000000000000000000000008152506000858154811061175557611754613b4e565b5b90600052602060002090600902016007019080519060200190611779929190613471565b505b808061178690613cca565b9150506116aa565b50505050565b6060600082815481106117aa576117a9613b4e565b5b906000526020600020906009020160080180548060200260200160405190810160405280929190818152602001828054801561183b57602002820191906000526020600020905b8160009054906101000a900473ffffffffffffffffffffffffffffffffffffffff1673ffffffffffffffffffffffffffffffffffffffff16815260200190600101908083116117f1575b50505050509050919050565b60008060006060806000806060806000808b8154811061186a57611869613b4e565b5b9060005260206000209060090201604051806101200160405290816000820160009054906101000a900473ffffffffffffffffffffffffffffffffffffffff1673ffffffffffffffffffffffffffffffffffffffff1673ffffffffffffffffffffffffffffffffffffffff16815260200160018201548152602001600282015481526020016003820180546118fe90613bac565b80601f016020809104026020016040519081016040528092919081815260200182805461192a90613bac565b80156119775780601f1061194c57610100808354040283529160200191611977565b820191906000526020600020905b81548152906001019060200180831161195a57829003601f168201915b5050505050815260200160048201805461199090613bac565b80601f01602080910402602001604051908101604052809291908181526020018280546119bc90613bac565b8015611a095780601f106119de57610100808354040283529160200191611a09565b820191906000526020600020905b8154815290600101906020018083116119ec57829003601f168201915b505050505081526020016005820154815260200160068201548152602001600782018054611a3690613bac565b80601f0160208091040260200160405190810160405280929190818152602001828054611a6290613bac565b8015611aaf5780601f10611a8457610100808354040283529160200191611aaf565b820191906000526020600020905b815481529060010190602001808311611a9257829003601f168201915b5050505050815260200160088201805480602002602001604051908101604052809291908181526020018280548015611b3d57602002820191906000526020600020905b8160009054906101000a900473ffffffffffffffffffffffffffffffffffffffff1673ffffffffffffffffffffffffffffffffffffffff1681526020019060010190808311611af3575b5050505050815250509050806000015181602001518260400151836060015184608001518560a001518660c001518760e00151886101000151995099509950995099509950995099509950509193959799909294969850565b606060008281548110611bac57611bab613b4e565b5b90600052602060002090600902016007018054611bc890613bac565b80601f0160208091040260200160405190810160405280929190818152602001828054611bf490613bac565b8015611c415780601f10611c1657610100808354040283529160200191611c41565b820191906000526020600020905b815481529060010190602001808311611c2457829003601f168201915b50505050509050919050565b6000806000905060005b600080549050811015611fc9576000808281548110611c7957611c78613b4e565b5b9060005260206000209060090201604051806101200160405290816000820160009054906101000a900473ffffffffffffffffffffffffffffffffffffffff1673ffffffffffffffffffffffffffffffffffffffff1673ffffffffffffffffffffffffffffffffffffffff1681526020016001820154815260200160028201548152602001600382018054611d0d90613bac565b80601f0160208091040260200160405190810160405280929190818152602001828054611d3990613bac565b8015611d865780601f10611d5b57610100808354040283529160200191611d86565b820191906000526020600020905b815481529060010190602001808311611d6957829003601f168201915b50505050508152602001600482018054611d9f90613bac565b80601f0160208091040260200160405190810160405280929190818152602001828054611dcb90613bac565b8015611e185780601f10611ded57610100808354040283529160200191611e18565b820191906000526020600020905b815481529060010190602001808311611dfb57829003601f168201915b505050505081526020016005820154815260200160068201548152602001600782018054611e4590613bac565b80601f0160208091040260200160405190810160405280929190818152602001828054611e7190613bac565b8015611ebe5780601f10611e9357610100808354040283529160200191611ebe565b820191906000526020600020905b815481529060010190602001808311611ea157829003601f168201915b5050505050815260200160088201805480602002602001604051908101604052809291908181526020018280548015611f4c57602002820191906000526020600020905b8160009054906101000a900473ffffffffffffffffffffffffffffffffffffffff1673ffffffffffffffffffffffffffffffffffffffff1681526020019060010190808311611f02575b50505050508152505090506040518060400160405280600781526020017f656e726f75746500000000000000000000000000000000000000000000000000815250805190602001208160e00151805190602001201415611fb5578280611fb190613cca565b9350505b508080611fc190613cca565b915050611c57565b508091505090565b6000806000905060005b60008054905081101561234d576000808281548110611ffd57611ffc613b4e565b5b9060005260206000209060090201604051806101200160405290816000820160009054906101000a900473ffffffffffffffffffffffffffffffffffffffff1673ffffffffffffffffffffffffffffffffffffffff1673ffffffffffffffffffffffffffffffffffffffff168152602001600182015481526020016002820154815260200160038201805461209190613bac565b80601f01602080910402602001604051908101604052809291908181526020018280546120bd90613bac565b801561210a5780601f106120df5761010080835404028352916020019161210a565b820191906000526020600020905b8154815290600101906020018083116120ed57829003601f168201915b5050505050815260200160048201805461212390613bac565b80601f016020809104026020016040519081016040528092919081815260200182805461214f90613bac565b801561219c5780601f106121715761010080835404028352916020019161219c565b820191906000526020600020905b81548152906001019060200180831161217f57829003601f168201915b5050505050815260200160058201548152602001600682015481526020016007820180546121c990613bac565b80601f01602080910402602001604051908101604052809291908181526020018280546121f590613bac565b80156122425780601f1061221757610100808354040283529160200191612242565b820191906000526020600020905b81548152906001019060200180831161222557829003601f168201915b50505050508152602001600882018054806020026020016040519081016040528092919081815260200182805480156122d057602002820191906000526020600020905b8160009054906101000a900473ffffffffffffffffffffffffffffffffffffffff1673ffffffffffffffffffffffffffffffffffffffff1681526020019060010190808311612286575b50505050508152505090506040518060400160405280600781526020017f496e697469616c00000000000000000000000000000000000000000000000000815250805190602001208160e0015180519060200120141561233957828061233590613cca565b9350505b50808061234590613cca565b915050611fdb565b508091505090565b60008080549050905090565b600080828154811061237657612375613b4e565b5b9060005260206000209060090201604051806101200160405290816000820160009054906101000a900473ffffffffffffffffffffffffffffffffffffffff1673ffffffffffffffffffffffffffffffffffffffff1673ffffffffffffffffffffffffffffffffffffffff168152602001600182015481526020016002820154815260200160038201805461240a90613bac565b80601f016020809104026020016040519081016040528092919081815260200182805461243690613bac565b80156124835780601f1061245857610100808354040283529160200191612483565b820191906000526020600020905b81548152906001019060200180831161246657829003601f168201915b5050505050815260200160048201805461249c90613bac565b80601f01602080910402602001604051908101604052809291908181526020018280546124c890613bac565b80156125155780601f106124ea57610100808354040283529160200191612515565b820191906000526020600020905b8154815290600101906020018083116124f857829003601f168201915b50505050508152602001600582015481526020016006820154815260200160078201805461254290613bac565b80601f016020809104026020016040519081016040528092919081815260200182805461256e90613bac565b80156125bb5780601f10612590576101008083540402835291602001916125bb565b820191906000526020600020905b81548152906001019060200180831161259e57829003601f168201915b505050505081526020016008820180548060200260200160405190810160405280929190818152602001828054801561264957602002820191906000526020600020905b8160009054906101000a900473ffffffffffffffffffffffffffffffffffffffff1673ffffffffffffffffffffffffffffffffffffffff16815260200190600101908083116125ff575b5050505050815250509050806000015173ffffffffffffffffffffffffffffffffffffffff163373ffffffffffffffffffffffffffffffffffffffff161461269057600080fd5b6040518060400160405280600781526020017f656e726f75746500000000000000000000000000000000000000000000000000815250805190602001208160e001518051906020012014156126e457600080fd5b478160200151826101000151516126fb9190613c0d565b111561270657600080fd5b60005b816101000151518110156127ad576000670de0b6b3a764000083602001516127319190613c0d565b9050826101000151828151811061274b5761274a613b4e565b5b602002602001015173ffffffffffffffffffffffffffffffffffffffff166108fc829081150290604051600060405180830381858888f19350505050158015612798573d6000803e3d6000fd5b505080806127a590613cca565b915050612709565b506040518060400160405280600981526020017f43616e63656c6c65640000000000000000000000000000000000000000000000815250600083815481106127f8576127f7613b4e565b5b9060005260206000209060090201600701908051906020019061281c929190613471565b505050565b6000806000905060005b600080549050811015612b9d57600080828154811061284d5761284c613b4e565b5b9060005260206000209060090201604051806101200160405290816000820160009054906101000a900473ffffffffffffffffffffffffffffffffffffffff1673ffffffffffffffffffffffffffffffffffffffff1673ffffffffffffffffffffffffffffffffffffffff16815260200160018201548152602001600282015481526020016003820180546128e190613bac565b80601f016020809104026020016040519081016040528092919081815260200182805461290d90613bac565b801561295a5780601f1061292f5761010080835404028352916020019161295a565b820191906000526020600020905b81548152906001019060200180831161293d57829003601f168201915b5050505050815260200160048201805461297390613bac565b80601f016020809104026020016040519081016040528092919081815260200182805461299f90613bac565b80156129ec5780601f106129c1576101008083540402835291602001916129ec565b820191906000526020600020905b8154815290600101906020018083116129cf57829003601f168201915b505050505081526020016005820154815260200160068201548152602001600782018054612a1990613bac565b80601f0160208091040260200160405190810160405280929190818152602001828054612a4590613bac565b8015612a925780601f10612a6757610100808354040283529160200191612a92565b820191906000526020600020905b815481529060010190602001808311612a7557829003601f168201915b5050505050815260200160088201805480602002602001604051908101604052809291908181526020018280548015612b2057602002820191906000526020600020905b8160009054906101000a900473ffffffffffffffffffffffffffffffffffffffff1673ffffffffffffffffffffffffffffffffffffffff1681526020019060010190808311612ad6575b50505050508152505090506040518060400160405280600981526020017f636f6d706c657465640000000000000000000000000000000000000000000000815250805190602001208160e00151805190602001201415612b89578280612b8590613cca565b9350505b508080612b9590613cca565b91505061282b565b508091505090565b60008060008481548110612bbc57612bbb613b4e565b5b9060005260206000209060090201604051806101200160405290816000820160009054906101000a900473ffffffffffffffffffffffffffffffffffffffff1673ffffffffffffffffffffffffffffffffffffffff1673ffffffffffffffffffffffffffffffffffffffff1681526020016001820154815260200160028201548152602001600382018054612c5090613bac565b80601f0160208091040260200160405190810160405280929190818152602001828054612c7c90613bac565b8015612cc95780601f10612c9e57610100808354040283529160200191612cc9565b820191906000526020600020905b815481529060010190602001808311612cac57829003601f168201915b50505050508152602001600482018054612ce290613bac565b80601f0160208091040260200160405190810160405280929190818152602001828054612d0e90613bac565b8015612d5b5780601f10612d3057610100808354040283529160200191612d5b565b820191906000526020600020905b815481529060010190602001808311612d3e57829003601f168201915b505050505081526020016005820154815260200160068201548152602001600782018054612d8890613bac565b80601f0160208091040260200160405190810160405280929190818152602001828054612db490613bac565b8015612e015780601f10612dd657610100808354040283529160200191612e01565b820191906000526020600020905b815481529060010190602001808311612de457829003601f168201915b5050505050815260200160088201805480602002602001604051908101604052809291908181526020018280548015612e8f57602002820191906000526020600020905b8160009054906101000a900473ffffffffffffffffffffffffffffffffffffffff1673ffffffffffffffffffffffffffffffffffffffff1681526020019060010190808311612e45575b505050505081525050905060005b81610100015151811015612f1c578373ffffffffffffffffffffffffffffffffffffffff168261010001518281518110612eda57612ed9613b4e565b5b602002602001015173ffffffffffffffffffffffffffffffffffffffff161415612f0957600192505050612f23565b8080612f1490613cca565b915050612e9d565b5060009150505b92915050565b6000808281548110612f3e57612f3d613b4e565b5b9060005260206000209060090201604051806101200160405290816000820160009054906101000a900473ffffffffffffffffffffffffffffffffffffffff1673ffffffffffffffffffffffffffffffffffffffff1673ffffffffffffffffffffffffffffffffffffffff1681526020016001820154815260200160028201548152602001600382018054612fd290613bac565b80601f0160208091040260200160405190810160405280929190818152602001828054612ffe90613bac565b801561304b5780601f106130205761010080835404028352916020019161304b565b820191906000526020600020905b81548152906001019060200180831161302e57829003601f168201915b5050505050815260200160048201805461306490613bac565b80601f016020809104026020016040519081016040528092919081815260200182805461309090613bac565b80156130dd5780601f106130b2576101008083540402835291602001916130dd565b820191906000526020600020905b8154815290600101906020018083116130c057829003601f168201915b50505050508152602001600582015481526020016006820154815260200160078201805461310a90613bac565b80601f016020809104026020016040519081016040528092919081815260200182805461313690613bac565b80156131835780601f1061315857610100808354040283529160200191613183565b820191906000526020600020905b81548152906001019060200180831161316657829003601f168201915b505050505081526020016008820180548060200260200160405190810160405280929190818152602001828054801561321157602002820191906000526020600020905b8160009054906101000a900473ffffffffffffffffffffffffffffffffffffffff1673ffffffffffffffffffffffffffffffffffffffff16815260200190600101908083116131c7575b5050505050815250509050806000015173ffffffffffffffffffffffffffffffffffffffff163373ffffffffffffffffffffffffffffffffffffffff161461325857600080fd5b6040518060400160405280600781526020017f656e726f75746500000000000000000000000000000000000000000000000000815250600083815481106132a2576132a1613b4e565b5b906000526020600020906009020160070190805190602001906132c6929190613471565b505050565b606060006040518061012001604052803373ffffffffffffffffffffffffffffffffffffffff1681526020018881526020018781526020018681526020018581526020014281526020018481526020016040518060400160405280600781526020017f496e697469616c00000000000000000000000000000000000000000000000000815250815260200183815250908060018154018082558091505060019003906000526020600020906009020160009091909190915060008201518160000160006101000a81548173ffffffffffffffffffffffffffffffffffffffff021916908373ffffffffffffffffffffffffffffffffffffffff160217905550602082015181600101556040820151816002015560608201518160030190805190602001906133fa929190613471565b506080820151816004019080519060200190613417929190613471565b5060a0820151816005015560c0820151816006015560e0820151816007019080519060200190613448929190613471565b506101008201518160080190805190602001906134669291906134f7565b505050505050505050565b82805461347d90613bac565b90600052602060002090601f01602090048101928261349f57600085556134e6565b82601f106134b857805160ff19168380011785556134e6565b828001600101855582156134e6579182015b828111156134e55782518255916020019190600101906134ca565b5b5090506134f39190613581565b5090565b828054828255906000526020600020908101928215613570579160200282015b8281111561356f5782518260006101000a81548173ffffffffffffffffffffffffffffffffffffffff021916908373ffffffffffffffffffffffffffffffffffffffff16021790555091602001919060010190613517565b5b50905061357d9190613581565b5090565b5b8082111561359a576000816000905550600101613582565b5090565b6000604051905090565b600080fd5b600080fd5b6000819050919050565b6135c5816135b2565b81146135d057600080fd5b50565b6000813590506135e2816135bc565b92915050565b6000602082840312156135fe576135fd6135a8565b5b600061360c848285016135d3565b91505092915050565b60008115159050919050565b61362a81613615565b82525050565b60006020820190506136456000830184613621565b92915050565b600073ffffffffffffffffffffffffffffffffffffffff82169050919050565b60006136768261364b565b9050919050565b6136868161366b565b811461369157600080fd5b50565b6000813590506136a38161367d565b92915050565b600080604083850312156136c0576136bf6135a8565b5b60006136ce858286016135d3565b92505060206136df85828601613694565b9150509250929050565b600081519050919050565b600082825260208201905092915050565b6000819050602082019050919050565b61371e8161366b565b82525050565b60006137308383613715565b60208301905092915050565b6000602082019050919050565b6000613754826136e9565b61375e81856136f4565b935061376983613705565b8060005b8381101561379a5781516137818882613724565b975061378c8361373c565b92505060018101905061376d565b5085935050505092915050565b600060208201905081810360008301526137c18184613749565b905092915050565b6137d28161366b565b82525050565b6137e1816135b2565b82525050565b600081519050919050565b600082825260208201905092915050565b60005b83811015613821578082015181840152602081019050613806565b83811115613830576000848401525b50505050565b6000601f19601f8301169050919050565b6000613852826137e7565b61385c81856137f2565b935061386c818560208601613803565b61387581613836565b840191505092915050565b600061012082019050613896600083018c6137c9565b6138a3602083018b6137d8565b6138b0604083018a6137d8565b81810360608301526138c28189613847565b905081810360808301526138d68188613847565b90506138e560a08301876137d8565b6138f260c08301866137d8565b81810360e08301526139048185613847565b90508181036101008301526139198184613749565b90509a9950505050505050505050565b600060208201905081810360008301526139438184613847565b905092915050565b600060208201905061396060008301846137d8565b92915050565b600080fd5b600080fd5b7f4e487b7100000000000000000000000000000000000000000000000000000000600052604160045260246000fd5b6139a882613836565b810181811067ffffffffffffffff821117156139c7576139c6613970565b5b80604052505050565b60006139da61359e565b90506139e6828261399f565b919050565b600067ffffffffffffffff821115613a0657613a05613970565b5b613a0f82613836565b9050602081019050919050565b82818337600083830152505050565b6000613a3e613a39846139eb565b6139d0565b905082815260208101848484011115613a5a57613a5961396b565b5b613a65848285613a1c565b509392505050565b600082601f830112613a8257613a81613966565b5b8135613a92848260208601613a2b565b91505092915050565b600080600080600060a08688031215613ab757613ab66135a8565b5b6000613ac5888289016135d3565b9550506020613ad6888289016135d3565b945050604086013567ffffffffffffffff811115613af757613af66135ad565b5b613b0388828901613a6d565b935050606086013567ffffffffffffffff811115613b2457613b236135ad565b5b613b3088828901613a6d565b9250506080613b41888289016135d3565b9150509295509295909350565b7f4e487b7100000000000000000000000000000000000000000000000000000000600052603260045260246000fd5b7f4e487b7100000000000000000000000000000000000000000000000000000000600052602260045260246000fd5b60006002820490506001821680613bc457607f821691505b60208210811415613bd857613bd7613b7d565b5b50919050565b7f4e487b7100000000000000000000000000000000000000000000000000000000600052601160045260246000fd5b6000613c18826135b2565b9150613c23836135b2565b9250817fffffffffffffffffffffffffffffffffffffffffffffffffffffffffffffffff0483118215151615613c5c57613c5b613bde565b5b828202905092915050565b6000613c72826135b2565b9150613c7d836135b2565b925082821015613c9057613c8f613bde565b5b828203905092915050565b7f4e487b7100000000000000000000000000000000000000000000000000000000600052603160045260246000fd5b6000613cd5826135b2565b91507fffffffffffffffffffffffffffffffffffffffffffffffffffffffffffffffff821415613d0857613d07613bde565b5b60018201905091905056fea264697066735822122068e6a0337bbf4c60c71c82ea7b97d2aeef9f7722bf47e2376f8282da631bccf264736f6c634300080c0033",
  "immutableReferences": {},
  "source": "// SPDX-License-Identifier: GPL-3.0\r\n\r\npragma solidity >=0.5.0 <=0.9.0;\r\n// import \"./Transfer.sol\";\r\n\r\ncontract Rideshare {\r\n    struct Ride{\r\n        address driver;\r\n        uint drivingCost;\r\n        uint capacity;\r\n        string originAddress;\r\n        string destAddress;\r\n        uint createdAt;\r\n        uint departAt;\r\n        string rideStatus;\r\n        // mapping (address => string) rideStatus;\r\n        address[] passengerAccts;\r\n    }\r\n\r\n    Ride[]  rides;\r\n    // uint public rideCount;\r\n\r\n    // points will be given on successful completition of ride as a reputation\r\n    mapping (address => uint) reputationPoints;\r\n\r\n    // user can create ride  ---- called by driver\r\n    function createRide( uint _driverCost, uint _capacity, string memory _originAddress, string memory _destAddress, uint _departAt) public\r\n    {\r\n       address[] memory _passengerAccts;\r\n       rides.push(Ride(msg.sender, _driverCost, _capacity, _originAddress, _destAddress, block.timestamp, _departAt,\"Initial\", _passengerAccts));\r\n    }\r\n\r\n    // called by passenger to send request to join ride --- called by passenger\r\n    function joinRide(uint rideNumber) public payable{\r\n        Ride memory curRide = rides[rideNumber];\r\n\r\n        //ride should not be started to join ride by passenger\r\n        require(keccak256(bytes(curRide.rideStatus)) == keccak256(bytes(\"Initial\")));\r\n        require(msg.value >= curRide.drivingCost);\r\n        rides[rideNumber].passengerAccts.push(msg.sender);\r\n        rides[rideNumber].rideStatus = \"passengerRequested\";\r\n\r\n    }\r\n   \r\n\r\n    // get list of all passenger in given ride\r\n    function getPassengers(uint rideNumber) view public returns(address[] memory) {\r\n        return rides[rideNumber].passengerAccts;\r\n    }\r\n    \r\n    // get ride status of given ride\r\n    function getRideStatus(uint rideNumber) view public returns(string memory) {\r\n    return rides[rideNumber].rideStatus;\r\n    }\r\n\r\n    // get rides from all ride by id of rides\r\n    function getRide(uint rideNumber) public view returns ( address, uint, uint, string memory, string memory, uint, uint, string memory, address[] memory) {\r\n    Ride memory ride = rides[rideNumber];\r\n    return (\r\n      ride.driver,\r\n      ride.drivingCost,\r\n      ride.capacity,\r\n      ride.originAddress,\r\n      ride.destAddress,\r\n      ride.createdAt,\r\n      ride.departAt,\r\n      ride.rideStatus,\r\n      ride.passengerAccts\r\n\r\n      );\r\n    }\r\n\r\n    // get total available ride count\r\n    function getAvailableRideCount() public view returns(uint) {\r\n        uint rideCount=0;\r\n        for (uint i=0;i<rides.length;i++){\r\n                Ride memory curRide = rides[i];\r\n                if(keccak256(bytes(curRide.rideStatus)) == keccak256(bytes(\"Initial\"))){\r\n                    rideCount++;\r\n                } \r\n\r\n        }\r\n    return rideCount;\r\n    }\r\n    function getEnrouteRideCount() public view returns(uint) {\r\n        uint rideCount=0;\r\n        for (uint i=0;i<rides.length;i++){\r\n                Ride memory curRide = rides[i];\r\n                if(keccak256(bytes(curRide.rideStatus)) == keccak256(bytes(\"enroute\"))){\r\n                    rideCount++;\r\n                } \r\n\r\n        }\r\n    return rideCount;\r\n    }\r\n    function getCompletedRideCount() public view returns(uint) {\r\n        uint rideCount=0;\r\n        for (uint i=0;i<rides.length;i++){\r\n                Ride memory curRide = rides[i];\r\n                if(keccak256(bytes(curRide.rideStatus)) == keccak256(bytes(\"completed\"))){\r\n                    rideCount++;\r\n                } \r\n\r\n        }\r\n    return rideCount;\r\n    }\r\n    \r\n    // get total ride count\r\n    function getTotalRideCount() public view returns(uint){\r\n        return rides.length;\r\n    }\r\n\r\n    // check is passenger is in ride or not \r\n    function passengerInRide(uint rideNumber, address passengerAcct) public view returns (bool) {\r\n    Ride memory curRide = rides[rideNumber];\r\n    for(uint i = 0; i < curRide.passengerAccts.length; i++) {\r\n      if (curRide.passengerAccts[i] == passengerAcct) {\r\n        return true;\r\n        }\r\n      }\r\n    return false;\r\n    }\r\n\r\n    //ride cancelled by the driver, transfer money back to all account ---- called by driver\r\n    function cancelRide(uint _rideNumber) public{\r\n        Ride memory curRide = rides[_rideNumber];\r\n        require(msg.sender == curRide.driver);\r\n        require(keccak256(bytes(curRide.rideStatus)) != keccak256(bytes(\"enroute\")));\r\n        require(curRide.passengerAccts.length*curRide.drivingCost <= address(this).balance);\r\n        for(uint i=0; i < curRide.passengerAccts.length; i++) {\r\n            uint256 amount = curRide.drivingCost*1000000000000000000;\r\n            payable(curRide.passengerAccts[i]).transfer(amount);\r\n        }\r\n        rides[_rideNumber].rideStatus = \"Cancelled\";\r\n\r\n    }\r\n\r\n    \r\n\r\n    //create function to start ride and change ride status to enRoute ----- called by driver\r\n    function startRide(uint _rideNumber) public{\r\n        Ride memory curRide = rides[_rideNumber];\r\n        require(msg.sender == curRide.driver);\r\n        rides[_rideNumber].rideStatus = \"enroute\";\r\n    }\r\n    \r\n    //  When ride is completed, passenger will call the function and change ride status to completed and amount from contract to driver account will be transferred.\r\n    function endRide(uint _rideNumber) public returns(bool){\r\n        Ride memory curRide = rides[_rideNumber];\r\n        if (curRide.passengerAccts.length>0){\r\n        require(msg.sender != curRide.driver);\r\n        }\r\n        require(keccak256(bytes(curRide.rideStatus)) == keccak256(bytes(\"enroute\")));\r\n        require(address(this).balance>=curRide.passengerAccts.length*curRide.drivingCost);\r\n        uint256 amount = curRide.passengerAccts.length*curRide.drivingCost*1000000000000000000;\r\n        payable(curRide.driver).transfer(amount);\r\n        rides[_rideNumber].rideStatus = \"completed\";\r\n        return true;\r\n    }\r\n\r\n    \r\n    \r\n\r\n   // accept passenger's request to ride --- called by driver\r\n    function acceptPassengerRequest(uint rideNumber, address passengerAddress) public {\r\n    Ride memory curRide = rides[rideNumber];\r\n    require(keccak256(bytes(curRide.rideStatus)) == keccak256(bytes(\"passengerRequested\")));\r\n    require(msg.sender == curRide.driver);\r\n    for(uint i=0; i < curRide.passengerAccts.length; i++) {\r\n       if ( curRide.passengerAccts[i] == passengerAddress) {\r\n        rides[rideNumber].rideStatus = \"passengerConfirmed\";\r\n        }\r\n      }\r\n    }\r\n\r\n    // reject passenger's request to ride --- called by driver\r\n    function rejectPassengerRequest(uint rideNumber, address passengerAddress) public {\r\n    Ride memory curRide = rides[rideNumber];\r\n    require(keccak256(bytes(curRide.rideStatus)) == keccak256(bytes(\"passengerRequested\")));\r\n    require(msg.sender == curRide.driver);\r\n    for(uint i=0; i < curRide.passengerAccts.length; i++) {\r\n       if ( curRide.passengerAccts[i] == passengerAddress) {\r\n        rides[rideNumber].rideStatus = \"Initial\";\r\n        uint256 amount = curRide.drivingCost*1000000000000000000;\r\n        payable(curRide.passengerAccts[i]).transfer(amount);\r\n        rides[rideNumber].passengerAccts[i] = rides[rideNumber].passengerAccts[rides[rideNumber].passengerAccts.length - 1];\r\n        rides[rideNumber].passengerAccts.pop();        }\r\n      }\r\n    }\r\n\r\n\r\n}\r\n\r\n\r\n\r\n\r\n\r\n\r\n",
  "sourcePath": "C:\\Users\\Asus\\OneDrive\\Desktop\\Final Project\\Decentralized Ride Sharing\\contracts\\RideShare.sol",
  "compiler": {
    "name": "solc",
    "version": "0.8.12+commit.f00d7308.Emscripten.clang"
  },
  "schemaVersion": "3.4.12",
  "updatedAt": "2023-03-19T07:33:42.843Z",
  "devdoc": {
    "kind": "dev",
    "methods": {},
    "version": 1
  },
  "userdoc": {
    "kind": "user",
    "methods": {},
    "version": 1
  }
}